{
  "contractName": "Donation",
  "abi": [
    {
      "inputs": [],
      "payable": false,
      "stateMutability": "nonpayable",
      "type": "constructor"
    },
    {
      "constant": true,
      "inputs": [
        {
          "internalType": "address",
          "name": "",
          "type": "address"
        }
      ],
      "name": "donations",
      "outputs": [
        {
          "internalType": "uint256",
          "name": "",
          "type": "uint256"
        }
      ],
      "payable": false,
      "stateMutability": "view",
      "type": "function"
    },
    {
      "constant": true,
      "inputs": [],
      "name": "owner",
      "outputs": [
        {
          "internalType": "address",
          "name": "",
          "type": "address"
        }
      ],
      "payable": false,
      "stateMutability": "view",
      "type": "function"
    },
    {
      "constant": false,
      "inputs": [
        {
          "internalType": "uint256",
          "name": "_amount",
          "type": "uint256"
        }
      ],
      "name": "donate",
      "outputs": [],
      "payable": true,
      "stateMutability": "payable",
      "type": "function"
    },
    {
      "constant": true,
      "inputs": [],
      "name": "getDonations",
      "outputs": [
        {
          "internalType": "uint256",
          "name": "",
          "type": "uint256"
        }
      ],
      "payable": false,
      "stateMutability": "view",
      "type": "function"
    },
    {
      "constant": true,
      "inputs": [],
      "name": "getTotalDonations",
      "outputs": [
        {
          "internalType": "uint256",
          "name": "",
          "type": "uint256"
        }
      ],
      "payable": false,
      "stateMutability": "view",
      "type": "function"
    },
    {
      "constant": false,
      "inputs": [],
      "name": "claimDonate",
      "outputs": [],
      "payable": true,
      "stateMutability": "payable",
      "type": "function"
    }
  ],
  "bytecode": "0x608060405234801561001057600080fd5b50336000806101000a81548173ffffffffffffffffffffffffffffffffffffffff021916908373ffffffffffffffffffffffffffffffffffffffff16021790555061037b806100606000396000f3fe6080604052600436106100555760003560e01c8063777c658f1461005a5780638161b677146100855780638da5cb5b1461008f578063cc6cb19a146100e6578063e25f84161461014b578063f14faf6f14610176575b600080fd5b34801561006657600080fd5b5061006f6101a4565b6040518082815260200191505060405180910390f35b61008d6101b1565b005b34801561009b57600080fd5b506100a461025a565b604051808273ffffffffffffffffffffffffffffffffffffffff1673ffffffffffffffffffffffffffffffffffffffff16815260200191505060405180910390f35b3480156100f257600080fd5b506101356004803603602081101561010957600080fd5b81019080803573ffffffffffffffffffffffffffffffffffffffff16906020019092919050505061027f565b6040518082815260200191505060405180910390f35b34801561015757600080fd5b50610160610297565b6040518082815260200191505060405180910390f35b6101a26004803603602081101561018c57600080fd5b81019080803590602001909291905050506102de565b005b6000804790508091505090565b6000809054906101000a900473ffffffffffffffffffffffffffffffffffffffff1673ffffffffffffffffffffffffffffffffffffffff163373ffffffffffffffffffffffffffffffffffffffff161461020a57600080fd5b3373ffffffffffffffffffffffffffffffffffffffff166108fc61022c6101a4565b9081150290604051600060405180830381858888f19350505050158015610257573d6000803e3d6000fd5b50565b6000809054906101000a900473ffffffffffffffffffffffffffffffffffffffff1681565b60016020528060005260406000206000915090505481565b6000600160003373ffffffffffffffffffffffffffffffffffffffff1673ffffffffffffffffffffffffffffffffffffffff16815260200190815260200160002054905090565b80341480156102ed5750600034115b6102f657600080fd5b34600160003373ffffffffffffffffffffffffffffffffffffffff1673ffffffffffffffffffffffffffffffffffffffff168152602001908152602001600020600082825401925050819055505056fea265627a7a72315820d626ad14a0f59a7f866e50624a6ffabdc0b173d2c7b3eb04b550ba9783f1243864736f6c63430005100032",
  "source": "pragma solidity ^0.5.0;\r\n\r\ncontract Donation {\r\n    address public owner;\r\n    mapping(address => uint256) public donations;\r\n\r\n    constructor() public {\r\n        owner = msg.sender;\r\n    }\r\n\r\n    function donate(uint256 _amount) public payable {\r\n        require(msg.value == _amount && msg.value > 0);\r\n        donations[msg.sender] += msg.value;\r\n    }\r\n\r\n    function getDonations() public view returns (uint256) {\r\n        return donations[msg.sender];\r\n    }\r\n\r\n    function getTotalDonations() public view returns (uint256) {\r\n        uint256 balance = address(this).balance;\r\n        return balance;\r\n    }\r\n\r\n    function claimDonate() public payable {\r\n        require(msg.sender == owner);\r\n        msg.sender.transfer(getTotalDonations());\r\n    }\r\n}",
  "sourcePath": "D:\\pet-shop-new\\contracts\\Donation.sol",
  "compiler": {
    "name": "solc",
    "version": "0.5.16+commit.9c3226ce.Emscripten.clang"
  },
  "schemaVersion": "3.4.6",
  "updatedAt": "2022-04-26T11:29:00.231Z",
  "networkType": "ethereum",
  "devdoc": {
    "methods": {}
  },
  "userdoc": {
    "methods": {}
  }
}