{
  "contractName": "Donation",
  "abi": [
    {
      "inputs": [],
      "payable": false,
      "stateMutability": "nonpayable",
      "type": "constructor"
    },
    {
      "constant": true,
      "inputs": [
        {
          "internalType": "address",
          "name": "",
          "type": "address"
        }
      ],
      "name": "donations",
      "outputs": [
        {
          "internalType": "uint256",
          "name": "",
          "type": "uint256"
        }
      ],
      "payable": false,
      "stateMutability": "view",
      "type": "function"
    },
    {
      "constant": true,
      "inputs": [],
      "name": "owner",
      "outputs": [
        {
          "internalType": "address payable",
          "name": "",
          "type": "address"
        }
      ],
      "payable": false,
      "stateMutability": "view",
      "type": "function"
    },
    {
      "constant": true,
      "inputs": [],
      "name": "totalDonate",
      "outputs": [
        {
          "internalType": "uint256",
          "name": "",
          "type": "uint256"
        }
      ],
      "payable": false,
      "stateMutability": "view",
      "type": "function"
    },
    {
      "constant": true,
      "inputs": [],
      "name": "checkOwner",
      "outputs": [
        {
          "internalType": "bool",
          "name": "",
          "type": "bool"
        }
      ],
      "payable": false,
      "stateMutability": "view",
      "type": "function"
    },
    {
      "constant": false,
      "inputs": [
        {
          "internalType": "uint256",
          "name": "_amount",
          "type": "uint256"
        }
      ],
      "name": "donate",
      "outputs": [],
      "payable": true,
      "stateMutability": "payable",
      "type": "function"
    },
    {
      "constant": true,
      "inputs": [],
      "name": "getDonations",
      "outputs": [
        {
          "internalType": "uint256",
          "name": "",
          "type": "uint256"
        }
      ],
      "payable": false,
      "stateMutability": "view",
      "type": "function"
    },
    {
      "constant": true,
      "inputs": [],
      "name": "getTotalDonations",
      "outputs": [
        {
          "internalType": "uint256",
          "name": "",
          "type": "uint256"
        }
      ],
      "payable": false,
      "stateMutability": "view",
      "type": "function"
    },
    {
      "constant": true,
      "inputs": [],
      "name": "getMonthlyDonation",
      "outputs": [
        {
          "internalType": "uint256",
          "name": "",
          "type": "uint256"
        }
      ],
      "payable": false,
      "stateMutability": "view",
      "type": "function"
    },
    {
      "constant": false,
      "inputs": [],
      "name": "claimDonate",
      "outputs": [
        {
          "internalType": "uint256",
          "name": "",
          "type": "uint256"
        }
      ],
      "payable": true,
      "stateMutability": "payable",
      "type": "function"
    }
  ],
  "bytecode": "0x608060405234801561001057600080fd5b50336000806101000a81548173ffffffffffffffffffffffffffffffffffffffff021916908373ffffffffffffffffffffffffffffffffffffffff16021790555061053b806100606000396000f3fe6080604052600436106100865760003560e01c8063cc6cb19a11610059578063cc6cb19a14610156578063cdbce03d146101bb578063e25f8416146101ea578063f14faf6f14610215578063fae25e0e1461024357610086565b806322402c251461008b578063777c658f146100b65780638161b677146100e15780638da5cb5b146100ff575b600080fd5b34801561009757600080fd5b506100a061026e565b6040518082815260200191505060405180910390f35b3480156100c257600080fd5b506100cb61027b565b6040518082815260200191505060405180910390f35b6100e9610285565b6040518082815260200191505060405180910390f35b34801561010b57600080fd5b5061011461037f565b604051808273ffffffffffffffffffffffffffffffffffffffff1673ffffffffffffffffffffffffffffffffffffffff16815260200191505060405180910390f35b34801561016257600080fd5b506101a56004803603602081101561017957600080fd5b81019080803573ffffffffffffffffffffffffffffffffffffffff1690602001909291905050506103a4565b6040518082815260200191505060405180910390f35b3480156101c757600080fd5b506101d06103bc565b604051808215151515815260200191505060405180910390f35b3480156101f657600080fd5b506101ff61041e565b6040518082815260200191505060405180910390f35b6102416004803603602081101561022b57600080fd5b8101908080359060200190929190505050610465565b005b34801561024f57600080fd5b506102586104dd565b6040518082815260200191505060405180910390f35b6000804790508091505090565b6000600154905090565b60008060009054906101000a900473ffffffffffffffffffffffffffffffffffffffff1673ffffffffffffffffffffffffffffffffffffffff163373ffffffffffffffffffffffffffffffffffffffff161461032c576040517f08c379a00000000000000000000000000000000000000000000000000000000081526004018080602001828103825260238152602001806104e46023913960400191505060405180910390fd5b60004790503373ffffffffffffffffffffffffffffffffffffffff166108fc829081150290604051600060405180830381858888f19350505050158015610377573d6000803e3d6000fd5b508091505090565b6000809054906101000a900473ffffffffffffffffffffffffffffffffffffffff1681565b60026020528060005260406000206000915090505481565b60008060009054906101000a900473ffffffffffffffffffffffffffffffffffffffff1673ffffffffffffffffffffffffffffffffffffffff163373ffffffffffffffffffffffffffffffffffffffff161461041757600080fd5b6001905090565b6000600260003373ffffffffffffffffffffffffffffffffffffffff1673ffffffffffffffffffffffffffffffffffffffff16815260200190815260200160002054905090565b80341480156104745750600034115b61047d57600080fd5b34600260003373ffffffffffffffffffffffffffffffffffffffff1673ffffffffffffffffffffffffffffffffffffffff168152602001908152602001600020600082825401925050819055503460016000828254019250508190555050565b6001548156fe596f7520646f6e27742068617665207065726d697373696f6e20746f20616363657373a265627a7a723158204ed4c415dc96329106b33f921464f80b4645442b5629673b04455893cd5a732864736f6c63430005100032",
  "source": "pragma solidity ^0.5.0;\r\n\r\ncontract Donation {\r\n    address payable public owner;\r\n    uint256 public totalDonate;\r\n    mapping(address => uint256) public donations;\r\n   \r\n    constructor() public {\r\n        owner = msg.sender;\r\n    }\r\n\r\n    function checkOwner() public view returns(bool){\r\n        require(msg.sender == owner);\r\n        return true;\r\n    }\r\n\r\n    function donate(uint256 _amount) public payable {\r\n        require(msg.value == _amount && msg.value > 0);\r\n        donations[msg.sender] += msg.value;\r\n        totalDonate += msg.value;\r\n    }\r\n\r\n    function getDonations() public view returns (uint256) {\r\n        return donations[msg.sender];\r\n    }\r\n\r\n    function getTotalDonations() public view returns (uint256) {\r\n        return totalDonate;\r\n    }\r\n\r\n    function getMonthlyDonation() public view returns (uint256) {\r\n        uint256 balance = address(this).balance;\r\n        return balance;\r\n    }\r\n\r\n    function claimDonate() public payable returns(uint256){\r\n        require(msg.sender == owner, \"You don't have permission to access\");\r\n        uint256 balance = address(this).balance;\r\n        msg.sender.transfer(balance);\r\n        return balance;\r\n    \r\n    }\r\n}",
  "sourcePath": "D:\\pet-shop-new\\contracts\\Donation.sol",
  "compiler": {
    "name": "solc",
    "version": "0.5.16+commit.9c3226ce.Emscripten.clang"
  },
  "schemaVersion": "3.4.6",
  "updatedAt": "2022-04-29T17:35:58.977Z",
  "networkType": "ethereum",
  "devdoc": {
    "methods": {}
  },
  "userdoc": {
    "methods": {}
  }
}