{
  "contractName": "PetStore",
  "abi": [
    {
      "inputs": [],
      "payable": false,
      "stateMutability": "nonpayable",
      "type": "constructor"
    },
    {
      "constant": true,
      "inputs": [],
      "name": "owner",
      "outputs": [
        {
          "internalType": "address payable",
          "name": "",
          "type": "address"
        }
      ],
      "payable": false,
      "stateMutability": "view",
      "type": "function"
    },
    {
      "constant": true,
      "inputs": [
        {
          "internalType": "address",
          "name": "",
          "type": "address"
        }
      ],
      "name": "payment",
      "outputs": [
        {
          "internalType": "uint256",
          "name": "",
          "type": "uint256"
        }
      ],
      "payable": false,
      "stateMutability": "view",
      "type": "function"
    },
    {
      "constant": false,
      "inputs": [
        {
          "internalType": "uint256",
          "name": "_amount",
          "type": "uint256"
        }
      ],
      "name": "payPet",
      "outputs": [],
      "payable": true,
      "stateMutability": "payable",
      "type": "function"
    },
    {
      "constant": true,
      "inputs": [],
      "name": "getMoney",
      "outputs": [
        {
          "internalType": "uint256",
          "name": "",
          "type": "uint256"
        }
      ],
      "payable": false,
      "stateMutability": "view",
      "type": "function"
    }
  ],
  "bytecode": "0x608060405234801561001057600080fd5b50336000806101000a81548173ffffffffffffffffffffffffffffffffffffffff021916908373ffffffffffffffffffffffffffffffffffffffff1602179055506102a8806100606000396000f3fe60806040526004361061003f5760003560e01c80633b92f3df146100445780638da5cb5b146100a957806398e1b41014610100578063be8f2a7c1461012b575b600080fd5b34801561005057600080fd5b506100936004803603602081101561006757600080fd5b81019080803573ffffffffffffffffffffffffffffffffffffffff169060200190929190505050610159565b6040518082815260200191505060405180910390f35b3480156100b557600080fd5b506100be610171565b604051808273ffffffffffffffffffffffffffffffffffffffff1673ffffffffffffffffffffffffffffffffffffffff16815260200191505060405180910390f35b34801561010c57600080fd5b50610115610196565b6040518082815260200191505060405180910390f35b6101576004803603602081101561014157600080fd5b81019080803590602001909291905050506101a3565b005b60016020528060005260406000206000915090505481565b6000809054906101000a900473ffffffffffffffffffffffffffffffffffffffff1681565b6000804790508091505090565b80341480156101b25750600034115b6101bb57600080fd5b34600160003373ffffffffffffffffffffffffffffffffffffffff1673ffffffffffffffffffffffffffffffffffffffff168152602001908152602001600020600082825401925050819055506000809054906101000a900473ffffffffffffffffffffffffffffffffffffffff1673ffffffffffffffffffffffffffffffffffffffff166108fc349081150290604051600060405180830381858888f1935050505015801561026f573d6000803e3d6000fd5b505056fea265627a7a72315820c03f90b68bcec9d949e360ba187e3518782f15886b0ea18b6adb52b7e53c3e0f64736f6c63430005100032",
  "source": "pragma solidity ^0.5.0;\r\n\r\ncontract PetStore {\r\n   address payable public owner;\r\n    mapping(address => uint256) public payment;\r\n\r\n    constructor() public {\r\n        owner = msg.sender;\r\n    }\r\n\r\n    function payPet(uint256 _amount) public payable {\r\n        require(msg.value == _amount && msg.value > 0);\r\n        payment[msg.sender] += msg.value;\r\n        owner.transfer(msg.value);\r\n    }\r\n\r\n    function getMoney() public view returns (uint256) {\r\n        uint256 balance = address(this).balance;\r\n        return balance;\r\n    }\r\n\r\n}\r\n\r\n",
  "sourcePath": "D:\\pet-shop-new\\contracts\\PetStore.sol",
  "compiler": {
    "name": "solc",
    "version": "0.5.16+commit.9c3226ce.Emscripten.clang"
  },
  "schemaVersion": "3.4.6",
  "updatedAt": "2022-04-30T08:40:30.179Z",
  "networkType": "ethereum",
  "devdoc": {
    "methods": {}
  },
  "userdoc": {
    "methods": {}
  }
}