{
  "contractName": "PetStore",
  "abi": [
    {
      "inputs": [],
      "payable": false,
      "stateMutability": "nonpayable",
      "type": "constructor"
    },
    {
      "constant": true,
      "inputs": [],
      "name": "owner",
      "outputs": [
        {
          "internalType": "address",
          "name": "",
          "type": "address"
        }
      ],
      "payable": false,
      "stateMutability": "view",
      "type": "function"
    },
    {
      "constant": true,
      "inputs": [
        {
          "internalType": "address",
          "name": "",
          "type": "address"
        }
      ],
      "name": "payment",
      "outputs": [
        {
          "internalType": "uint256",
          "name": "",
          "type": "uint256"
        }
      ],
      "payable": false,
      "stateMutability": "view",
      "type": "function"
    },
    {
      "constant": false,
      "inputs": [
        {
          "internalType": "uint256",
          "name": "_amount",
          "type": "uint256"
        }
      ],
      "name": "payPet",
      "outputs": [],
      "payable": true,
      "stateMutability": "payable",
      "type": "function"
    },
    {
      "constant": true,
      "inputs": [],
      "name": "getMoney",
      "outputs": [
        {
          "internalType": "uint256",
          "name": "",
          "type": "uint256"
        }
      ],
      "payable": false,
      "stateMutability": "view",
      "type": "function"
    },
    {
      "constant": false,
      "inputs": [],
      "name": "claimMoney",
      "outputs": [],
      "payable": true,
      "stateMutability": "payable",
      "type": "function"
    }
  ],
  "bytecode": "0x608060405234801561001057600080fd5b50336000806101000a81548173ffffffffffffffffffffffffffffffffffffffff021916908373ffffffffffffffffffffffffffffffffffffffff1602179055506102fe806100606000396000f3fe60806040526004361061004a5760003560e01c80633b92f3df1461004f5780636658e52b146100b45780638da5cb5b146100be57806398e1b41014610115578063be8f2a7c14610140575b600080fd5b34801561005b57600080fd5b5061009e6004803603602081101561007257600080fd5b81019080803573ffffffffffffffffffffffffffffffffffffffff16906020019092919050505061016e565b6040518082815260200191505060405180910390f35b6100bc610186565b005b3480156100ca57600080fd5b506100d361022f565b604051808273ffffffffffffffffffffffffffffffffffffffff1673ffffffffffffffffffffffffffffffffffffffff16815260200191505060405180910390f35b34801561012157600080fd5b5061012a610254565b6040518082815260200191505060405180910390f35b61016c6004803603602081101561015657600080fd5b8101908080359060200190929190505050610261565b005b60016020528060005260406000206000915090505481565b6000809054906101000a900473ffffffffffffffffffffffffffffffffffffffff1673ffffffffffffffffffffffffffffffffffffffff163373ffffffffffffffffffffffffffffffffffffffff16146101df57600080fd5b3373ffffffffffffffffffffffffffffffffffffffff166108fc610201610254565b9081150290604051600060405180830381858888f1935050505015801561022c573d6000803e3d6000fd5b50565b6000809054906101000a900473ffffffffffffffffffffffffffffffffffffffff1681565b6000804790508091505090565b80341480156102705750600034115b61027957600080fd5b34600160003373ffffffffffffffffffffffffffffffffffffffff1673ffffffffffffffffffffffffffffffffffffffff168152602001908152602001600020600082825401925050819055505056fea265627a7a72315820742850a3bf31abc4a20a87e7a3319200fdcbf7e62b3b7cf86d354dc86c3da3b164736f6c63430005100032",
  "source": "pragma solidity ^0.5.0;\r\n\r\ncontract PetStore {\r\n   address public owner;\r\n    mapping(address => uint256) public payment;\r\n\r\n    constructor() public {\r\n        owner = msg.sender;\r\n    }\r\n\r\n    function payPet(uint256 _amount) public payable {\r\n        require(msg.value == _amount && msg.value > 0);\r\n        payment[msg.sender] += msg.value;\r\n    }\r\n\r\n    function getMoney() public view returns (uint256) {\r\n        uint256 balance = address(this).balance;\r\n        return balance;\r\n    }\r\n\r\n    function claimMoney() public payable {\r\n        require(msg.sender == owner);\r\n        msg.sender.transfer(getMoney());\r\n    }\r\n}\r\n\r\n",
  "sourcePath": "D:\\pet-shop-new\\contracts\\PetStore.sol",
  "compiler": {
    "name": "solc",
    "version": "0.5.16+commit.9c3226ce.Emscripten.clang"
  },
  "schemaVersion": "3.4.6",
  "updatedAt": "2022-04-27T09:52:14.954Z",
  "networkType": "ethereum",
  "devdoc": {
    "methods": {}
  },
  "userdoc": {
    "methods": {}
  }
}