{
  "contractName": "ProductStore",
  "abi": [
    {
      "inputs": [],
      "payable": false,
      "stateMutability": "nonpayable",
      "type": "constructor"
    },
    {
      "constant": true,
      "inputs": [],
      "name": "owner",
      "outputs": [
        {
          "internalType": "address",
          "name": "",
          "type": "address"
        }
      ],
      "payable": false,
      "stateMutability": "view",
      "type": "function"
    },
    {
      "constant": true,
      "inputs": [
        {
          "internalType": "address",
          "name": "",
          "type": "address"
        }
      ],
      "name": "payment",
      "outputs": [
        {
          "internalType": "uint256",
          "name": "",
          "type": "uint256"
        }
      ],
      "payable": false,
      "stateMutability": "view",
      "type": "function"
    },
    {
      "constant": false,
      "inputs": [
        {
          "internalType": "uint256",
          "name": "_amount",
          "type": "uint256"
        }
      ],
      "name": "payProduct",
      "outputs": [],
      "payable": true,
      "stateMutability": "payable",
      "type": "function"
    }
  ],
  "bytecode": "0x608060405234801561001057600080fd5b50336000806101000a81548173ffffffffffffffffffffffffffffffffffffffff021916908373ffffffffffffffffffffffffffffffffffffffff1602179055506101fd806100606000396000f3fe6080604052600436106100345760003560e01c806332f5d037146100395780633b92f3df146100675780638da5cb5b146100cc575b600080fd5b6100656004803603602081101561004f57600080fd5b8101908080359060200190929190505050610123565b005b34801561007357600080fd5b506100b66004803603602081101561008a57600080fd5b81019080803573ffffffffffffffffffffffffffffffffffffffff16906020019092919050505061018b565b6040518082815260200191505060405180910390f35b3480156100d857600080fd5b506100e16101a3565b604051808273ffffffffffffffffffffffffffffffffffffffff1673ffffffffffffffffffffffffffffffffffffffff16815260200191505060405180910390f35b80341480156101325750600034115b61013b57600080fd5b34600160003373ffffffffffffffffffffffffffffffffffffffff1673ffffffffffffffffffffffffffffffffffffffff1681526020019081526020016000206000828254019250508190555050565b60016020528060005260406000206000915090505481565b6000809054906101000a900473ffffffffffffffffffffffffffffffffffffffff168156fea265627a7a72315820fcf0d0e7def42f0d7f97dbf4ccfd42bba0b2c9bda16ba6376d45cda890837ad864736f6c63430005100032",
  "source": "pragma solidity ^0.5.0;\r\n\r\ncontract ProductStore {\r\n    address public owner;\r\n    mapping(address => uint256) public payment;\r\n\r\n    constructor() public {\r\n        owner = msg.sender;\r\n    }\r\n\r\n    function payProduct(uint256 _amount) public payable {\r\n        require(msg.value == _amount && msg.value > 0);\r\n        payment[msg.sender] += msg.value;\r\n    }\r\n\r\n    // function claimDonate() public payable {\r\n    //     require(msg.sender == owner);\r\n    //     msg.sender.transfer(getTotalDonations());\r\n    // }\r\n}",
  "sourcePath": "D:\\pet-shop-new\\contracts\\ProductStore.sol",
  "compiler": {
    "name": "solc",
    "version": "0.5.16+commit.9c3226ce.Emscripten.clang"
  },
  "schemaVersion": "3.4.6",
  "updatedAt": "2022-04-26T16:06:12.895Z",
  "networkType": "ethereum",
  "devdoc": {
    "methods": {}
  },
  "userdoc": {
    "methods": {}
  }
}