{
  "contractName": "ProductStore",
  "abi": [
    {
      "inputs": [],
      "payable": false,
      "stateMutability": "nonpayable",
      "type": "constructor"
    },
    {
      "constant": true,
      "inputs": [],
      "name": "owner",
      "outputs": [
        {
          "internalType": "address",
          "name": "",
          "type": "address"
        }
      ],
      "payable": false,
      "stateMutability": "view",
      "type": "function"
    },
    {
      "constant": true,
      "inputs": [
        {
          "internalType": "address",
          "name": "",
          "type": "address"
        }
      ],
      "name": "payment",
      "outputs": [
        {
          "internalType": "uint256",
          "name": "",
          "type": "uint256"
        }
      ],
      "payable": false,
      "stateMutability": "view",
      "type": "function"
    },
    {
      "constant": false,
      "inputs": [
        {
          "internalType": "uint256",
          "name": "_amount",
          "type": "uint256"
        }
      ],
      "name": "payProduct",
      "outputs": [],
      "payable": true,
      "stateMutability": "payable",
      "type": "function"
    },
    {
      "constant": true,
      "inputs": [],
      "name": "getMoney",
      "outputs": [
        {
          "internalType": "uint256",
          "name": "",
          "type": "uint256"
        }
      ],
      "payable": false,
      "stateMutability": "view",
      "type": "function"
    },
    {
      "constant": false,
      "inputs": [],
      "name": "claimMoney",
      "outputs": [],
      "payable": true,
      "stateMutability": "payable",
      "type": "function"
    }
  ],
  "bytecode": "0x608060405234801561001057600080fd5b50336000806101000a81548173ffffffffffffffffffffffffffffffffffffffff021916908373ffffffffffffffffffffffffffffffffffffffff1602179055506102fe806100606000396000f3fe60806040526004361061004a5760003560e01c806332f5d0371461004f5780633b92f3df1461007d5780636658e52b146100e25780638da5cb5b146100ec57806398e1b41014610143575b600080fd5b61007b6004803603602081101561006557600080fd5b810190808035906020019092919050505061016e565b005b34801561008957600080fd5b506100cc600480360360208110156100a057600080fd5b81019080803573ffffffffffffffffffffffffffffffffffffffff1690602001909291905050506101d6565b6040518082815260200191505060405180910390f35b6100ea6101ee565b005b3480156100f857600080fd5b50610101610297565b604051808273ffffffffffffffffffffffffffffffffffffffff1673ffffffffffffffffffffffffffffffffffffffff16815260200191505060405180910390f35b34801561014f57600080fd5b506101586102bc565b6040518082815260200191505060405180910390f35b803414801561017d5750600034115b61018657600080fd5b34600160003373ffffffffffffffffffffffffffffffffffffffff1673ffffffffffffffffffffffffffffffffffffffff1681526020019081526020016000206000828254019250508190555050565b60016020528060005260406000206000915090505481565b6000809054906101000a900473ffffffffffffffffffffffffffffffffffffffff1673ffffffffffffffffffffffffffffffffffffffff163373ffffffffffffffffffffffffffffffffffffffff161461024757600080fd5b3373ffffffffffffffffffffffffffffffffffffffff166108fc6102696102bc565b9081150290604051600060405180830381858888f19350505050158015610294573d6000803e3d6000fd5b50565b6000809054906101000a900473ffffffffffffffffffffffffffffffffffffffff1681565b600080479050809150509056fea265627a7a72315820a35a3f07b921eff8f8d15b61076fb93d36446f2a8451bd51d8bb7cb4afc532a764736f6c63430005100032",
  "source": "pragma solidity ^0.5.0;\r\n\r\ncontract ProductStore {\r\n    address public owner;\r\n    mapping(address => uint256) public payment;\r\n\r\n    constructor() public {\r\n        owner = msg.sender;\r\n    }\r\n\r\n    function payProduct(uint256 _amount) public payable {\r\n        require(msg.value == _amount && msg.value > 0);\r\n        payment[msg.sender] += msg.value;\r\n    }\r\n\r\n    function getMoney() public view returns (uint256) {\r\n        uint256 balance = address(this).balance;\r\n        return balance;\r\n    }\r\n\r\n    function claimMoney() public payable {\r\n        require(msg.sender == owner);\r\n        msg.sender.transfer(getMoney());\r\n    }\r\n\r\n}",
  "sourcePath": "D:\\pet-shop-new\\contracts\\ProductStore.sol",
  "compiler": {
    "name": "solc",
    "version": "0.5.16+commit.9c3226ce.Emscripten.clang"
  },
  "schemaVersion": "3.4.6",
  "updatedAt": "2022-04-27T09:52:17.668Z",
  "networkType": "ethereum",
  "devdoc": {
    "methods": {}
  },
  "userdoc": {
    "methods": {}
  }
}