{
  "contractName": "ProductStore",
  "abi": [
    {
      "inputs": [],
      "payable": false,
      "stateMutability": "nonpayable",
      "type": "constructor"
    },
    {
      "constant": true,
      "inputs": [],
      "name": "owner",
      "outputs": [
        {
          "internalType": "address payable",
          "name": "",
          "type": "address"
        }
      ],
      "payable": false,
      "stateMutability": "view",
      "type": "function"
    },
    {
      "constant": true,
      "inputs": [
        {
          "internalType": "address",
          "name": "",
          "type": "address"
        }
      ],
      "name": "payment",
      "outputs": [
        {
          "internalType": "uint256",
          "name": "",
          "type": "uint256"
        }
      ],
      "payable": false,
      "stateMutability": "view",
      "type": "function"
    },
    {
      "constant": false,
      "inputs": [
        {
          "internalType": "uint256",
          "name": "_amount",
          "type": "uint256"
        }
      ],
      "name": "payProduct",
      "outputs": [],
      "payable": true,
      "stateMutability": "payable",
      "type": "function"
    },
    {
      "constant": true,
      "inputs": [],
      "name": "getMoney",
      "outputs": [
        {
          "internalType": "uint256",
          "name": "",
          "type": "uint256"
        }
      ],
      "payable": false,
      "stateMutability": "view",
      "type": "function"
    }
  ],
  "bytecode": "0x608060405234801561001057600080fd5b50336000806101000a81548173ffffffffffffffffffffffffffffffffffffffff021916908373ffffffffffffffffffffffffffffffffffffffff1602179055506102a8806100606000396000f3fe60806040526004361061003f5760003560e01c806332f5d037146100445780633b92f3df146100725780638da5cb5b146100d757806398e1b4101461012e575b600080fd5b6100706004803603602081101561005a57600080fd5b8101908080359060200190929190505050610159565b005b34801561007e57600080fd5b506100c16004803603602081101561009557600080fd5b81019080803573ffffffffffffffffffffffffffffffffffffffff169060200190929190505050610229565b6040518082815260200191505060405180910390f35b3480156100e357600080fd5b506100ec610241565b604051808273ffffffffffffffffffffffffffffffffffffffff1673ffffffffffffffffffffffffffffffffffffffff16815260200191505060405180910390f35b34801561013a57600080fd5b50610143610266565b6040518082815260200191505060405180910390f35b80341480156101685750600034115b61017157600080fd5b34600160003373ffffffffffffffffffffffffffffffffffffffff1673ffffffffffffffffffffffffffffffffffffffff168152602001908152602001600020600082825401925050819055506000809054906101000a900473ffffffffffffffffffffffffffffffffffffffff1673ffffffffffffffffffffffffffffffffffffffff166108fc349081150290604051600060405180830381858888f19350505050158015610225573d6000803e3d6000fd5b5050565b60016020528060005260406000206000915090505481565b6000809054906101000a900473ffffffffffffffffffffffffffffffffffffffff1681565b600080479050809150509056fea265627a7a723158205da72d005091a8f8cab4f62329d048bda98cf38cae07d9aa4e8f8f07e6f6759b64736f6c63430005100032",
  "source": "pragma solidity ^0.5.0;\r\n\r\ncontract ProductStore {\r\n    address payable public owner;\r\n    mapping(address => uint256) public payment;\r\n\r\n    constructor() public {\r\n        owner = msg.sender;\r\n    }\r\n\r\n    function payProduct(uint256 _amount) public payable {\r\n        require(msg.value == _amount && msg.value > 0);\r\n        payment[msg.sender] += msg.value;\r\n        owner.transfer(msg.value);\r\n    }\r\n\r\n    function getMoney() public view returns (uint256) {\r\n        uint256 balance = address(this).balance;\r\n        return balance;\r\n    }\r\n\r\n\r\n}",
  "sourcePath": "D:\\pet-shop-new\\contracts\\ProductStore.sol",
  "compiler": {
    "name": "solc",
    "version": "0.5.16+commit.9c3226ce.Emscripten.clang"
  },
  "schemaVersion": "3.4.6",
  "updatedAt": "2022-04-28T17:13:46.149Z",
  "networkType": "ethereum",
  "devdoc": {
    "methods": {}
  },
  "userdoc": {
    "methods": {}
  }
}